{"abi":[{"type":"constructor","inputs":[{"name":"_alignedServiceManager","type":"address","internalType":"address"},{"name":"_paymentServiceAddr","type":"address","internalType":"address"}],"stateMutability":"nonpayable"},{"type":"function","name":"alignedServiceManager","inputs":[],"outputs":[{"name":"","type":"address","internalType":"address"}],"stateMutability":"view"},{"type":"function","name":"approve","inputs":[{"name":"to","type":"address","internalType":"address"},{"name":"tokenId","type":"uint256","internalType":"uint256"}],"outputs":[],"stateMutability":"nonpayable"},{"type":"function","name":"balanceOf","inputs":[{"name":"owner","type":"address","internalType":"address"}],"outputs":[{"name":"","type":"uint256","internalType":"uint256"}],"stateMutability":"view"},{"type":"function","name":"elfCommitment","inputs":[],"outputs":[{"name":"","type":"bytes32","internalType":"bytes32"}],"stateMutability":"view"},{"type":"function","name":"getApproved","inputs":[{"name":"tokenId","type":"uint256","internalType":"uint256"}],"outputs":[{"name":"","type":"address","internalType":"address"}],"stateMutability":"view"},{"type":"function","name":"isApprovedForAll","inputs":[{"name":"owner","type":"address","internalType":"address"},{"name":"operator","type":"address","internalType":"address"}],"outputs":[{"name":"","type":"bool","internalType":"bool"}],"stateMutability":"view"},{"type":"function","name":"mintedProofs","inputs":[{"name":"","type":"bytes32","internalType":"bytes32"}],"outputs":[{"name":"","type":"bool","internalType":"bool"}],"stateMutability":"view"},{"type":"function","name":"name","inputs":[],"outputs":[{"name":"","type":"string","internalType":"string"}],"stateMutability":"view"},{"type":"function","name":"ownerOf","inputs":[{"name":"tokenId","type":"uint256","internalType":"uint256"}],"outputs":[{"name":"","type":"address","internalType":"address"}],"stateMutability":"view"},{"type":"function","name":"paymentServiceAddr","inputs":[],"outputs":[{"name":"","type":"address","internalType":"address"}],"stateMutability":"view"},{"type":"function","name":"safeTransferFrom","inputs":[{"name":"from","type":"address","internalType":"address"},{"name":"to","type":"address","internalType":"address"},{"name":"tokenId","type":"uint256","internalType":"uint256"}],"outputs":[],"stateMutability":"nonpayable"},{"type":"function","name":"safeTransferFrom","inputs":[{"name":"from","type":"address","internalType":"address"},{"name":"to","type":"address","internalType":"address"},{"name":"tokenId","type":"uint256","internalType":"uint256"},{"name":"data","type":"bytes","internalType":"bytes"}],"outputs":[],"stateMutability":"nonpayable"},{"type":"function","name":"setApprovalForAll","inputs":[{"name":"operator","type":"address","internalType":"address"},{"name":"approved","type":"bool","internalType":"bool"}],"outputs":[],"stateMutability":"nonpayable"},{"type":"function","name":"supportsInterface","inputs":[{"name":"interfaceId","type":"bytes4","internalType":"bytes4"}],"outputs":[{"name":"","type":"bool","internalType":"bool"}],"stateMutability":"view"},{"type":"function","name":"symbol","inputs":[],"outputs":[{"name":"","type":"string","internalType":"string"}],"stateMutability":"view"},{"type":"function","name":"tokenURI","inputs":[{"name":"tokenId","type":"uint256","internalType":"uint256"}],"outputs":[{"name":"","type":"string","internalType":"string"}],"stateMutability":"view"},{"type":"function","name":"transferFrom","inputs":[{"name":"from","type":"address","internalType":"address"},{"name":"to","type":"address","internalType":"address"},{"name":"tokenId","type":"uint256","internalType":"uint256"}],"outputs":[],"stateMutability":"nonpayable"},{"type":"function","name":"verifyBatchInclusion","inputs":[{"name":"proofCommitment","type":"bytes32","internalType":"bytes32"},{"name":"pubInputCommitment","type":"bytes32","internalType":"bytes32"},{"name":"provingSystemAuxDataCommitment","type":"bytes32","internalType":"bytes32"},{"name":"proofGeneratorAddr","type":"bytes20","internalType":"bytes20"},{"name":"batchMerkleRoot","type":"bytes32","internalType":"bytes32"},{"name":"merkleProof","type":"bytes","internalType":"bytes"},{"name":"verificationDataBatchIndex","type":"uint256","internalType":"uint256"}],"outputs":[{"name":"","type":"uint256","internalType":"uint256"}],"stateMutability":"nonpayable"},{"type":"event","name":"Approval","inputs":[{"name":"owner","type":"address","indexed":true,"internalType":"address"},{"name":"approved","type":"address","indexed":true,"internalType":"address"},{"name":"tokenId","type":"uint256","indexed":true,"internalType":"uint256"}],"anonymous":false},{"type":"event","name":"ApprovalForAll","inputs":[{"name":"owner","type":"address","indexed":true,"internalType":"address"},{"name":"operator","type":"address","indexed":true,"internalType":"address"},{"name":"approved","type":"bool","indexed":false,"internalType":"bool"}],"anonymous":false},{"type":"event","name":"BatchMetadataUpdate","inputs":[{"name":"_fromTokenId","type":"uint256","indexed":false,"internalType":"uint256"},{"name":"_toTokenId","type":"uint256","indexed":false,"internalType":"uint256"}],"anonymous":false},{"type":"event","name":"MetadataUpdate","inputs":[{"name":"_tokenId","type":"uint256","indexed":false,"internalType":"uint256"}],"anonymous":false},{"type":"event","name":"Transfer","inputs":[{"name":"from","type":"address","indexed":true,"internalType":"address"},{"name":"to","type":"address","indexed":true,"internalType":"address"},{"name":"tokenId","type":"uint256","indexed":true,"internalType":"uint256"}],"anonymous":false},{"type":"error","name":"ERC721IncorrectOwner","inputs":[{"name":"sender","type":"address","internalType":"address"},{"name":"tokenId","type":"uint256","internalType":"uint256"},{"name":"owner","type":"address","internalType":"address"}]},{"type":"error","name":"ERC721InsufficientApproval","inputs":[{"name":"operator","type":"address","internalType":"address"},{"name":"tokenId","type":"uint256","internalType":"uint256"}]},{"type":"error","name":"ERC721InvalidApprover","inputs":[{"name":"approver","type":"address","internalType":"address"}]},{"type":"error","name":"ERC721InvalidOperator","inputs":[{"name":"operator","type":"address","internalType":"address"}]},{"type":"error","name":"ERC721InvalidOwner","inputs":[{"name":"owner","type":"address","internalType":"address"}]},{"type":"error","name":"ERC721InvalidReceiver","inputs":[{"name":"receiver","type":"address","internalType":"address"}]},{"type":"error","name":"ERC721InvalidSender","inputs":[{"name":"sender","type":"address","internalType":"address"}]},{"type":"error","name":"ERC721NonexistentToken","inputs":[{"name":"tokenId","type":"uint256","internalType":"uint256"}]},{"type":"error","name":"InvalidElf","inputs":[{"name":"submittedElf","type":"bytes32","internalType":"bytes32"}]}],"bytecode":{"object":"0x60806040527f8cd63e5e969ddd74bba1c587b0250cc2ecc2bb75a71d6eb0fab8d0c910e4ae99600a5534801561003457600080fd5b506040516116dd3803806116dd83398101604081905261005391610116565b6040518060400160405280601581526020017f416c69676e6564204c61796572205a4b205175697a000000000000000000000081525060405180604001604052806004815260200163415a4b5160e01b81525081600090816100b591906101e8565b5060016100c282826101e8565b5050600880546001600160a01b039485166001600160a01b0319918216179091556009805493909416921691909117909155506102a6565b80516001600160a01b038116811461011157600080fd5b919050565b6000806040838503121561012957600080fd5b610132836100fa565b9150610140602084016100fa565b90509250929050565b634e487b7160e01b600052604160045260246000fd5b600181811c9082168061017357607f821691505b60208210810361019357634e487b7160e01b600052602260045260246000fd5b50919050565b601f8211156101e357806000526020600020601f840160051c810160208510156101c05750805b601f840160051c820191505b818110156101e057600081556001016101cc565b50505b505050565b81516001600160401b0381111561020157610201610149565b6102158161020f845461015f565b84610199565b6020601f82116001811461024957600083156102315750848201515b600019600385901b1c1916600184901b1784556101e0565b600084815260208120601f198516915b828110156102795787850151825560209485019460019092019101610259565b50848210156102975786840151600019600387901b60f8161c191681555b50505050600190811b01905550565b611428806102b56000396000f3fe608060405234801561001057600080fd5b50600436106101165760003560e01c806390a05f2e116100a2578063c87b56dd11610071578063c87b56dd1461023c578063dd3df4bd1461024f578063e985e9c514610272578063f19cd88214610285578063fa534dc01461029857600080fd5b806390a05f2e146101fb57806395d89b411461020e578063a22cb46514610216578063b88d4fde1461022957600080fd5b80632212d607116100e95780632212d6071461019857806323b872dd146101af57806342842e0e146101c25780636352211e146101d557806370a08231146101e857600080fd5b806301ffc9a71461011b57806306fdde0314610143578063081812fc14610158578063095ea7b314610183575b600080fd5b61012e610129366004610e04565b6102ab565b60405190151581526020015b60405180910390f35b61014b6102d6565b60405161013a9190610e78565b61016b610166366004610e8b565b610368565b6040516001600160a01b03909116815260200161013a565b610196610191366004610ec0565b610391565b005b6101a1600a5481565b60405190815260200161013a565b6101966101bd366004610eea565b6103a0565b6101966101d0366004610eea565b610430565b61016b6101e3366004610e8b565b610450565b6101a16101f6366004610f27565b61045b565b60095461016b906001600160a01b031681565b61014b6104a3565b610196610224366004610f50565b6104b2565b61019661023736600461102c565b6104bd565b61014b61024a366004610e8b565b6104d4565b61012e61025d366004610e8b565b600b6020526000908152604090205460ff1681565b61012e610280366004611094565b6104ff565b60085461016b906001600160a01b031681565b6101a16102a63660046110c7565b61052d565b60006001600160e01b03198216632483248360e11b14806102d057506102d08261080f565b92915050565b6060600080546102e59061115c565b80601f01602080910402602001604051908101604052809291908181526020018280546103119061115c565b801561035e5780601f106103335761010080835404028352916020019161035e565b820191906000526020600020905b81548152906001019060200180831161034157829003601f168201915b5050505050905090565b60006103738261085f565b506000828152600460205260409020546001600160a01b03166102d0565b61039c828233610898565b5050565b6001600160a01b0382166103cf57604051633250574960e11b8152600060048201526024015b60405180910390fd5b60006103dc8383336108a5565b9050836001600160a01b0316816001600160a01b03161461042a576040516364283d7b60e01b81526001600160a01b03808616600483015260248201849052821660448201526064016103c6565b50505050565b61044b838383604051806020016040528060008152506104bd565b505050565b60006102d08261085f565b60006001600160a01b038216610487576040516322718ad960e21b8152600060048201526024016103c6565b506001600160a01b031660009081526003602052604090205490565b6060600180546102e59061115c565b61039c33838361099e565b6104c88484846103a0565b61042a84848484610a3d565b60606104df8261085f565b506040518060600160405280603581526020016113be6035913992915050565b6001600160a01b03918216600090815260056020908152604080832093909416825291909152205460ff1690565b600085600a54146105545760405163636ca83360e11b8152600481018790526024016103c6565b606085901c33146105b15760405162461bcd60e51b815260206004820152602160248201527f70726f6f6647656e657261746f724164647220646f6573206e6f74206d6174636044820152600d60fb1b60648201526084016103c6565b6040805160208082018b90528183018a9052606082018990526bffffffffffffffffffffffff198816608083015282516074818403018152609490920183528151918101919091206000818152600b9092529190205460ff161561064e5760405162461bcd60e51b81526020600482015260146024820152731c1c9bdbd988185b1c9958591e481b5a5b9d195960621b60448201526064016103c6565b60085460095460405160009283926001600160a01b0391821692610684928f928f928f928f928f928f928f921690602401611196565b60408051601f198184030181529181526020820180516001600160e01b03166306045a9160e01b179052516106b991906111fd565b600060405180830381855afa9150503d80600081146106f4576040519150601f19603f3d011682016040523d82523d6000602084013e6106f9565b606091505b5091509150816107405760405162461bcd60e51b81526020600482015260126024820152711cdd185d1a58d7d8d85b1b0819985a5b195960721b60448201526064016103c6565b6000818060200190518101906107569190611219565b9050806107a55760405162461bcd60e51b815260206004820152601b60248201527f70726f6f66206e6f7420696e636c7564656420696e206261746368000000000060448201526064016103c6565b6000848152600b60205260408120805460ff191660011790556007805490826107cd83611236565b9190505590506107dd3382610b66565b6107ff816040518060600160405280603581526020016113be60359139610bcb565b9c9b505050505050505050505050565b60006001600160e01b031982166380ac58cd60e01b148061084057506001600160e01b03198216635b5e139f60e01b145b806102d057506301ffc9a760e01b6001600160e01b03198316146102d0565b6000818152600260205260408120546001600160a01b0316806102d057604051637e27328960e01b8152600481018490526024016103c6565b61044b8383836001610c1b565b6000828152600260205260408120546001600160a01b03908116908316156108d2576108d2818486610d21565b6001600160a01b03811615610910576108ef600085600080610c1b565b6001600160a01b038116600090815260036020526040902080546000190190555b6001600160a01b0385161561093f576001600160a01b0385166000908152600360205260409020805460010190555b60008481526002602052604080822080546001600160a01b0319166001600160a01b0389811691821790925591518793918516917fddf252ad1be2c89b69c2b068fc378daa952ba7f163c4a11628f55a4df523b3ef91a4949350505050565b6001600160a01b0382166109d057604051630b61174360e31b81526001600160a01b03831660048201526024016103c6565b6001600160a01b03838116600081815260056020908152604080832094871680845294825291829020805460ff191686151590811790915591519182527f17307eab39ab6107e8899845ad3d59bd9653f200f220920489ca2b5937696c31910160405180910390a3505050565b6001600160a01b0383163b1561042a57604051630a85bd0160e11b81526001600160a01b0384169063150b7a0290610a7f90339088908790879060040161125d565b6020604051808303816000875af1925050508015610aba575060408051601f3d908101601f19168201909252610ab79181019061129a565b60015b610b23573d808015610ae8576040519150601f19603f3d011682016040523d82523d6000602084013e610aed565b606091505b508051600003610b1b57604051633250574960e11b81526001600160a01b03851660048201526024016103c6565b805181602001fd5b6001600160e01b03198116630a85bd0160e11b14610b5f57604051633250574960e11b81526001600160a01b03851660048201526024016103c6565b5050505050565b6001600160a01b038216610b9057604051633250574960e11b8152600060048201526024016103c6565b6000610b9e838360006108a5565b90506001600160a01b0381161561044b576040516339e3563760e11b8152600060048201526024016103c6565b6000828152600660205260409020610be382826112fe565b506040518281527ff8e1a15aba9398e019f0b49df1a4fde98ee17ae345cb5f6b5e2c27f5033e8ce79060200160405180910390a15050565b8080610c2f57506001600160a01b03821615155b15610cf1576000610c3f8461085f565b90506001600160a01b03831615801590610c6b5750826001600160a01b0316816001600160a01b031614155b8015610c7e5750610c7c81846104ff565b155b15610ca75760405163a9fbf51f60e01b81526001600160a01b03841660048201526024016103c6565b8115610cef5783856001600160a01b0316826001600160a01b03167f8c5be1e5ebec7d5bd14f71427d1e84f3dd0314c0f7b2291e5b200ac8c7c3b92560405160405180910390a45b505b5050600090815260046020526040902080546001600160a01b0319166001600160a01b0392909216919091179055565b610d2c838383610d85565b61044b576001600160a01b038316610d5a57604051637e27328960e01b8152600481018290526024016103c6565b60405163177e802f60e01b81526001600160a01b0383166004820152602481018290526044016103c6565b60006001600160a01b03831615801590610de35750826001600160a01b0316846001600160a01b03161480610dbf5750610dbf84846104ff565b80610de357506000828152600460205260409020546001600160a01b038481169116145b949350505050565b6001600160e01b031981168114610e0157600080fd5b50565b600060208284031215610e1657600080fd5b8135610e2181610deb565b9392505050565b60005b83811015610e43578181015183820152602001610e2b565b50506000910152565b60008151808452610e64816020860160208601610e28565b601f01601f19169290920160200192915050565b602081526000610e216020830184610e4c565b600060208284031215610e9d57600080fd5b5035919050565b80356001600160a01b0381168114610ebb57600080fd5b919050565b60008060408385031215610ed357600080fd5b610edc83610ea4565b946020939093013593505050565b600080600060608486031215610eff57600080fd5b610f0884610ea4565b9250610f1660208501610ea4565b929592945050506040919091013590565b600060208284031215610f3957600080fd5b610e2182610ea4565b8015158114610e0157600080fd5b60008060408385031215610f6357600080fd5b610f6c83610ea4565b91506020830135610f7c81610f42565b809150509250929050565b634e487b7160e01b600052604160045260246000fd5b600082601f830112610fae57600080fd5b813567ffffffffffffffff811115610fc857610fc8610f87565b604051601f8201601f19908116603f0116810167ffffffffffffffff81118282101715610ff757610ff7610f87565b60405281815283820160200185101561100f57600080fd5b816020850160208301376000918101602001919091529392505050565b6000806000806080858703121561104257600080fd5b61104b85610ea4565b935061105960208601610ea4565b925060408501359150606085013567ffffffffffffffff81111561107c57600080fd5b61108887828801610f9d565b91505092959194509250565b600080604083850312156110a757600080fd5b6110b083610ea4565b91506110be60208401610ea4565b90509250929050565b600080600080600080600060e0888a0312156110e257600080fd5b87359650602088013595506040880135945060608801356bffffffffffffffffffffffff198116811461111457600080fd5b93506080880135925060a088013567ffffffffffffffff81111561113757600080fd5b6111438a828b01610f9d565b979a969950949793969295929450505060c09091013590565b600181811c9082168061117057607f821691505b60208210810361119057634e487b7160e01b600052602260045260246000fd5b50919050565b8881528760208201528660408201526bffffffffffffffffffffffff198616606082015284608082015261010060a082015260006111d8610100830186610e4c565b60c0830194909452506001600160a01b039190911660e0909101529695505050505050565b6000825161120f818460208701610e28565b9190910192915050565b60006020828403121561122b57600080fd5b8151610e2181610f42565b60006001820161125657634e487b7160e01b600052601160045260246000fd5b5060010190565b6001600160a01b038581168252841660208201526040810183905260806060820181905260009061129090830184610e4c565b9695505050505050565b6000602082840312156112ac57600080fd5b8151610e2181610deb565b601f82111561044b57806000526020600020601f840160051c810160208510156112de5750805b601f840160051c820191505b81811015610b5f57600081556001016112ea565b815167ffffffffffffffff81111561131857611318610f87565b61132c81611326845461115c565b846112b7565b6020601f82116001811461136057600083156113485750848201515b600019600385901b1c1916600184901b178455610b5f565b600084815260208120601f198516915b828110156113905787850151825560209485019460019092019101611370565b50848210156113ae5786840151600019600387901b60f8161c191681555b50505050600190811b0190555056fe697066733a2f2f516d554b76696e793978326f51556567794a464642415555327135727675354373507a725561425344756b704851a2646970667358221220012c09ae37652fb3b46d5da8a7d6ccdc5bfbec02bbecea3ae00754aaf609bede64736f6c634300081a0033","linkReferences":{}},"methodIdentifiers":{"alignedServiceManager()":"f19cd882","approve(address,uint256)":"095ea7b3","balanceOf(address)":"70a08231","elfCommitment()":"2212d607","getApproved(uint256)":"081812fc","isApprovedForAll(address,address)":"e985e9c5","mintedProofs(bytes32)":"dd3df4bd","name()":"06fdde03","ownerOf(uint256)":"6352211e","paymentServiceAddr()":"90a05f2e","safeTransferFrom(address,address,uint256)":"42842e0e","safeTransferFrom(address,address,uint256,bytes)":"b88d4fde","setApprovalForAll(address,bool)":"a22cb465","supportsInterface(bytes4)":"01ffc9a7","symbol()":"95d89b41","tokenURI(uint256)":"c87b56dd","transferFrom(address,address,uint256)":"23b872dd","verifyBatchInclusion(bytes32,bytes32,bytes32,bytes20,bytes32,bytes,uint256)":"fa534dc0"},"id":35}